{
  "contractName": "DeDocs",
  "abi": [
    {
      "anonymous": false,
      "inputs": [
        {
          "indexed": false,
          "internalType": "address",
          "name": "user",
          "type": "address"
        },
        {
          "indexed": false,
          "internalType": "address",
          "name": "admin",
          "type": "address"
        },
        {
          "indexed": false,
          "internalType": "uint256",
          "name": "document_id",
          "type": "uint256"
        },
        {
          "indexed": false,
          "internalType": "string",
          "name": "timestamp",
          "type": "string"
        }
      ],
      "name": "Document_issued",
      "type": "event"
    },
    {
      "anonymous": false,
      "inputs": [
        {
          "indexed": false,
          "internalType": "uint256",
          "name": "document_id",
          "type": "uint256"
        },
        {
          "components": [
            {
              "internalType": "uint256",
              "name": "id",
              "type": "uint256"
            },
            {
              "internalType": "uint256",
              "name": "request_id",
              "type": "uint256"
            },
            {
              "internalType": "string",
              "name": "name",
              "type": "string"
            },
            {
              "internalType": "string",
              "name": "uid",
              "type": "string"
            },
            {
              "internalType": "string",
              "name": "ipfs_hash",
              "type": "string"
            },
            {
              "internalType": "string",
              "name": "issued_on",
              "type": "string"
            },
            {
              "internalType": "string",
              "name": "last_updated",
              "type": "string"
            },
            {
              "internalType": "address",
              "name": "admin",
              "type": "address"
            },
            {
              "internalType": "address",
              "name": "user",
              "type": "address"
            },
            {
              "internalType": "enum DeDocs.DEPARTMENT",
              "name": "department",
              "type": "uint8"
            }
          ],
          "indexed": false,
          "internalType": "struct DeDocs.Document",
          "name": "document",
          "type": "tuple"
        },
        {
          "indexed": false,
          "internalType": "string",
          "name": "message",
          "type": "string"
        },
        {
          "indexed": false,
          "internalType": "string",
          "name": "timestamp",
          "type": "string"
        }
      ],
      "name": "Document_modified",
      "type": "event"
    },
    {
      "anonymous": false,
      "inputs": [
        {
          "indexed": false,
          "internalType": "address",
          "name": "user",
          "type": "address"
        },
        {
          "indexed": false,
          "internalType": "uint256",
          "name": "request_id",
          "type": "uint256"
        },
        {
          "indexed": false,
          "internalType": "enum DeDocs.DEPARTMENT",
          "name": "department",
          "type": "uint8"
        }
      ],
      "name": "Request_made",
      "type": "event"
    },
    {
      "constant": true,
      "inputs": [
        {
          "internalType": "address",
          "name": "",
          "type": "address"
        }
      ],
      "name": "admins",
      "outputs": [
        {
          "internalType": "address",
          "name": "id",
          "type": "address"
        },
        {
          "internalType": "string",
          "name": "name",
          "type": "string"
        },
        {
          "internalType": "enum DeDocs.DEPARTMENT",
          "name": "department",
          "type": "uint8"
        }
      ],
      "payable": false,
      "stateMutability": "view",
      "type": "function"
    },
    {
      "constant": true,
      "inputs": [
        {
          "internalType": "uint256",
          "name": "",
          "type": "uint256"
        }
      ],
      "name": "all_documents",
      "outputs": [
        {
          "internalType": "uint256",
          "name": "id",
          "type": "uint256"
        },
        {
          "internalType": "uint256",
          "name": "request_id",
          "type": "uint256"
        },
        {
          "internalType": "string",
          "name": "name",
          "type": "string"
        },
        {
          "internalType": "string",
          "name": "uid",
          "type": "string"
        },
        {
          "internalType": "string",
          "name": "ipfs_hash",
          "type": "string"
        },
        {
          "internalType": "string",
          "name": "issued_on",
          "type": "string"
        },
        {
          "internalType": "string",
          "name": "last_updated",
          "type": "string"
        },
        {
          "internalType": "address",
          "name": "admin",
          "type": "address"
        },
        {
          "internalType": "address",
          "name": "user",
          "type": "address"
        },
        {
          "internalType": "enum DeDocs.DEPARTMENT",
          "name": "department",
          "type": "uint8"
        }
      ],
      "payable": false,
      "stateMutability": "view",
      "type": "function"
    },
    {
      "constant": true,
      "inputs": [
        {
          "internalType": "uint256",
          "name": "",
          "type": "uint256"
        }
      ],
      "name": "all_requests",
      "outputs": [
        {
          "internalType": "uint256",
          "name": "id",
          "type": "uint256"
        },
        {
          "internalType": "address",
          "name": "user_id",
          "type": "address"
        },
        {
          "internalType": "string",
          "name": "subject",
          "type": "string"
        },
        {
          "internalType": "string",
          "name": "description",
          "type": "string"
        },
        {
          "internalType": "string",
          "name": "ipfs_hash",
          "type": "string"
        },
        {
          "internalType": "string",
          "name": "date",
          "type": "string"
        },
        {
          "internalType": "enum DeDocs.DEPARTMENT",
          "name": "department",
          "type": "uint8"
        },
        {
          "internalType": "enum DeDocs.REQUEST_CATEGORY",
          "name": "category",
          "type": "uint8"
        },
        {
          "internalType": "enum DeDocs.REQUEST_STATUS",
          "name": "status",
          "type": "uint8"
        },
        {
          "internalType": "uint256",
          "name": "document_id",
          "type": "uint256"
        },
        {
          "internalType": "string",
          "name": "remarks",
          "type": "string"
        }
      ],
      "payable": false,
      "stateMutability": "view",
      "type": "function"
    },
    {
      "constant": true,
      "inputs": [
        {
          "internalType": "address",
          "name": "",
          "type": "address"
        },
        {
          "internalType": "uint256",
          "name": "",
          "type": "uint256"
        }
      ],
      "name": "documents",
      "outputs": [
        {
          "internalType": "uint256",
          "name": "",
          "type": "uint256"
        }
      ],
      "payable": false,
      "stateMutability": "view",
      "type": "function"
    },
    {
      "constant": true,
      "inputs": [
        {
          "internalType": "address",
          "name": "",
          "type": "address"
        },
        {
          "internalType": "uint256",
          "name": "",
          "type": "uint256"
        }
      ],
      "name": "requests",
      "outputs": [
        {
          "internalType": "uint256",
          "name": "",
          "type": "uint256"
        }
      ],
      "payable": false,
      "stateMutability": "view",
      "type": "function"
    },
    {
      "constant": true,
      "inputs": [],
      "name": "total_requests",
      "outputs": [
        {
          "internalType": "uint256",
          "name": "",
          "type": "uint256"
        }
      ],
      "payable": false,
      "stateMutability": "view",
      "type": "function"
    },
    {
      "constant": true,
      "inputs": [],
      "name": "total_users",
      "outputs": [
        {
          "internalType": "uint256",
          "name": "",
          "type": "uint256"
        }
      ],
      "payable": false,
      "stateMutability": "view",
      "type": "function"
    },
    {
      "constant": true,
      "inputs": [
        {
          "internalType": "address",
          "name": "",
          "type": "address"
        }
      ],
      "name": "users",
      "outputs": [
        {
          "internalType": "address",
          "name": "id",
          "type": "address"
        },
        {
          "internalType": "string",
          "name": "name",
          "type": "string"
        },
        {
          "internalType": "string",
          "name": "dob",
          "type": "string"
        },
        {
          "internalType": "string",
          "name": "password",
          "type": "string"
        },
        {
          "internalType": "string",
          "name": "joined",
          "type": "string"
        },
        {
          "internalType": "uint256",
          "name": "total_requests",
          "type": "uint256"
        }
      ],
      "payable": false,
      "stateMutability": "view",
      "type": "function"
    },
    {
      "constant": false,
      "inputs": [
        {
          "internalType": "string",
          "name": "_name",
          "type": "string"
        },
        {
          "internalType": "string",
          "name": "_dob",
          "type": "string"
        },
        {
          "internalType": "string",
          "name": "_password",
          "type": "string"
        },
        {
          "internalType": "string",
          "name": "_joined",
          "type": "string"
        }
      ],
      "name": "register_user",
      "outputs": [
        {
          "components": [
            {
              "internalType": "address",
              "name": "id",
              "type": "address"
            },
            {
              "internalType": "string",
              "name": "name",
              "type": "string"
            },
            {
              "internalType": "string",
              "name": "dob",
              "type": "string"
            },
            {
              "internalType": "string",
              "name": "password",
              "type": "string"
            },
            {
              "internalType": "string",
              "name": "joined",
              "type": "string"
            },
            {
              "internalType": "uint256",
              "name": "total_requests",
              "type": "uint256"
            }
          ],
          "internalType": "struct DeDocs.User",
          "name": "",
          "type": "tuple"
        }
      ],
      "payable": true,
      "stateMutability": "payable",
      "type": "function"
    },
    {
      "constant": false,
      "inputs": [
        {
          "internalType": "string",
          "name": "_name",
          "type": "string"
        },
        {
          "internalType": "enum DeDocs.DEPARTMENT",
          "name": "_department",
          "type": "uint8"
        }
      ],
      "name": "register_admin",
      "outputs": [
        {
          "components": [
            {
              "internalType": "address",
              "name": "id",
              "type": "address"
            },
            {
              "internalType": "string",
              "name": "name",
              "type": "string"
            },
            {
              "internalType": "enum DeDocs.DEPARTMENT",
              "name": "department",
              "type": "uint8"
            }
          ],
          "internalType": "struct DeDocs.Admin",
          "name": "",
          "type": "tuple"
        }
      ],
      "payable": true,
      "stateMutability": "payable",
      "type": "function"
    },
    {
      "constant": true,
      "inputs": [],
      "name": "get_departments",
      "outputs": [
        {
          "internalType": "string[4]",
          "name": "departments",
          "type": "string[4]"
        }
      ],
      "payable": false,
      "stateMutability": "pure",
      "type": "function"
    },
    {
      "constant": true,
      "inputs": [
        {
          "internalType": "address",
          "name": "_address",
          "type": "address"
        }
      ],
      "name": "get_role",
      "outputs": [
        {
          "internalType": "enum DeDocs.ROLE",
          "name": "role",
          "type": "uint8"
        }
      ],
      "payable": false,
      "stateMutability": "view",
      "type": "function"
    },
    {
      "constant": true,
      "inputs": [],
      "name": "get_all_requests",
      "outputs": [
        {
          "components": [
            {
              "internalType": "uint256",
              "name": "id",
              "type": "uint256"
            },
            {
              "internalType": "address",
              "name": "user_id",
              "type": "address"
            },
            {
              "internalType": "string",
              "name": "subject",
              "type": "string"
            },
            {
              "internalType": "string",
              "name": "description",
              "type": "string"
            },
            {
              "internalType": "string",
              "name": "ipfs_hash",
              "type": "string"
            },
            {
              "internalType": "string",
              "name": "date",
              "type": "string"
            },
            {
              "internalType": "enum DeDocs.DEPARTMENT",
              "name": "department",
              "type": "uint8"
            },
            {
              "internalType": "enum DeDocs.REQUEST_CATEGORY",
              "name": "category",
              "type": "uint8"
            },
            {
              "internalType": "enum DeDocs.REQUEST_STATUS",
              "name": "status",
              "type": "uint8"
            },
            {
              "internalType": "uint256",
              "name": "document_id",
              "type": "uint256"
            },
            {
              "internalType": "string",
              "name": "remarks",
              "type": "string"
            }
          ],
          "internalType": "struct DeDocs.Request[]",
          "name": "",
          "type": "tuple[]"
        }
      ],
      "payable": false,
      "stateMutability": "view",
      "type": "function"
    },
    {
      "constant": true,
      "inputs": [],
      "name": "get_all_documents",
      "outputs": [
        {
          "components": [
            {
              "internalType": "uint256",
              "name": "id",
              "type": "uint256"
            },
            {
              "internalType": "uint256",
              "name": "request_id",
              "type": "uint256"
            },
            {
              "internalType": "string",
              "name": "name",
              "type": "string"
            },
            {
              "internalType": "string",
              "name": "uid",
              "type": "string"
            },
            {
              "internalType": "string",
              "name": "ipfs_hash",
              "type": "string"
            },
            {
              "internalType": "string",
              "name": "issued_on",
              "type": "string"
            },
            {
              "internalType": "string",
              "name": "last_updated",
              "type": "string"
            },
            {
              "internalType": "address",
              "name": "admin",
              "type": "address"
            },
            {
              "internalType": "address",
              "name": "user",
              "type": "address"
            },
            {
              "internalType": "enum DeDocs.DEPARTMENT",
              "name": "department",
              "type": "uint8"
            }
          ],
          "internalType": "struct DeDocs.Document[]",
          "name": "",
          "type": "tuple[]"
        }
      ],
      "payable": false,
      "stateMutability": "view",
      "type": "function"
    },
    {
      "constant": true,
      "inputs": [
        {
          "internalType": "uint256",
          "name": "_document_id",
          "type": "uint256"
        },
        {
          "internalType": "address",
          "name": "_address",
          "type": "address"
        }
      ],
      "name": "verify_document",
      "outputs": [
        {
          "internalType": "bool",
          "name": "",
          "type": "bool"
        },
        {
          "internalType": "string",
          "name": "",
          "type": "string"
        }
      ],
      "payable": false,
      "stateMutability": "view",
      "type": "function"
    },
    {
      "constant": true,
      "inputs": [
        {
          "internalType": "address",
          "name": "_address",
          "type": "address"
        }
      ],
      "name": "get_user_details",
      "outputs": [
        {
          "components": [
            {
              "internalType": "address",
              "name": "id",
              "type": "address"
            },
            {
              "internalType": "string",
              "name": "name",
              "type": "string"
            },
            {
              "internalType": "string",
              "name": "dob",
              "type": "string"
            },
            {
              "internalType": "string",
              "name": "password",
              "type": "string"
            },
            {
              "internalType": "string",
              "name": "joined",
              "type": "string"
            },
            {
              "internalType": "uint256",
              "name": "total_requests",
              "type": "uint256"
            }
          ],
          "internalType": "struct DeDocs.User",
          "name": "user",
          "type": "tuple"
        }
      ],
      "payable": false,
      "stateMutability": "view",
      "type": "function"
    },
    {
      "constant": true,
      "inputs": [],
      "name": "get_user_requests",
      "outputs": [
        {
          "internalType": "uint256[]",
          "name": "_requests",
          "type": "uint256[]"
        }
      ],
      "payable": false,
      "stateMutability": "view",
      "type": "function"
    },
    {
      "constant": true,
      "inputs": [],
      "name": "get_user_documents",
      "outputs": [
        {
          "internalType": "uint256[]",
          "name": "_documents",
          "type": "uint256[]"
        }
      ],
      "payable": false,
      "stateMutability": "view",
      "type": "function"
    },
    {
      "constant": false,
      "inputs": [
        {
          "internalType": "enum DeDocs.DEPARTMENT",
          "name": "_department",
          "type": "uint8"
        },
        {
          "internalType": "string",
          "name": "_subject",
          "type": "string"
        },
        {
          "internalType": "string",
          "name": "_description",
          "type": "string"
        },
        {
          "internalType": "string",
          "name": "_ipfs_hash",
          "type": "string"
        },
        {
          "internalType": "enum DeDocs.REQUEST_CATEGORY",
          "name": "_request_category",
          "type": "uint8"
        },
        {
          "internalType": "string",
          "name": "_date",
          "type": "string"
        },
        {
          "internalType": "uint256",
          "name": "_document_id",
          "type": "uint256"
        }
      ],
      "name": "make_request",
      "outputs": [
        {
          "components": [
            {
              "internalType": "uint256",
              "name": "id",
              "type": "uint256"
            },
            {
              "internalType": "address",
              "name": "user_id",
              "type": "address"
            },
            {
              "internalType": "string",
              "name": "subject",
              "type": "string"
            },
            {
              "internalType": "string",
              "name": "description",
              "type": "string"
            },
            {
              "internalType": "string",
              "name": "ipfs_hash",
              "type": "string"
            },
            {
              "internalType": "string",
              "name": "date",
              "type": "string"
            },
            {
              "internalType": "enum DeDocs.DEPARTMENT",
              "name": "department",
              "type": "uint8"
            },
            {
              "internalType": "enum DeDocs.REQUEST_CATEGORY",
              "name": "category",
              "type": "uint8"
            },
            {
              "internalType": "enum DeDocs.REQUEST_STATUS",
              "name": "status",
              "type": "uint8"
            },
            {
              "internalType": "uint256",
              "name": "document_id",
              "type": "uint256"
            },
            {
              "internalType": "string",
              "name": "remarks",
              "type": "string"
            }
          ],
          "internalType": "struct DeDocs.Request",
          "name": "",
          "type": "tuple"
        }
      ],
      "payable": true,
      "stateMutability": "payable",
      "type": "function"
    },
    {
      "constant": true,
      "inputs": [],
      "name": "get_admin_details",
      "outputs": [
        {
          "components": [
            {
              "internalType": "address",
              "name": "id",
              "type": "address"
            },
            {
              "internalType": "string",
              "name": "name",
              "type": "string"
            },
            {
              "internalType": "enum DeDocs.DEPARTMENT",
              "name": "department",
              "type": "uint8"
            }
          ],
          "internalType": "struct DeDocs.Admin",
          "name": "admin",
          "type": "tuple"
        }
      ],
      "payable": false,
      "stateMutability": "view",
      "type": "function"
    },
    {
      "constant": true,
      "inputs": [
        {
          "internalType": "uint256",
          "name": "_document_id",
          "type": "uint256"
        }
      ],
      "name": "get_document",
      "outputs": [
        {
          "components": [
            {
              "internalType": "uint256",
              "name": "id",
              "type": "uint256"
            },
            {
              "internalType": "uint256",
              "name": "request_id",
              "type": "uint256"
            },
            {
              "internalType": "string",
              "name": "name",
              "type": "string"
            },
            {
              "internalType": "string",
              "name": "uid",
              "type": "string"
            },
            {
              "internalType": "string",
              "name": "ipfs_hash",
              "type": "string"
            },
            {
              "internalType": "string",
              "name": "issued_on",
              "type": "string"
            },
            {
              "internalType": "string",
              "name": "last_updated",
              "type": "string"
            },
            {
              "internalType": "address",
              "name": "admin",
              "type": "address"
            },
            {
              "internalType": "address",
              "name": "user",
              "type": "address"
            },
            {
              "internalType": "enum DeDocs.DEPARTMENT",
              "name": "department",
              "type": "uint8"
            }
          ],
          "internalType": "struct DeDocs.Document",
          "name": "",
          "type": "tuple"
        }
      ],
      "payable": false,
      "stateMutability": "view",
      "type": "function"
    },
    {
      "constant": false,
      "inputs": [
        {
          "internalType": "uint256",
          "name": "_request_id",
          "type": "uint256"
        },
        {
          "internalType": "string",
          "name": "_remarks",
          "type": "string"
        }
      ],
      "name": "reject_request",
      "outputs": [],
      "payable": true,
      "stateMutability": "payable",
      "type": "function"
    },
    {
      "constant": false,
      "inputs": [
        {
          "internalType": "uint256",
          "name": "_request_id",
          "type": "uint256"
        }
      ],
      "name": "approve_request",
      "outputs": [],
      "payable": true,
      "stateMutability": "payable",
      "type": "function"
    },
    {
      "constant": false,
      "inputs": [
        {
          "internalType": "uint256",
          "name": "_request_id",
          "type": "uint256"
        },
        {
          "internalType": "address",
          "name": "_userAddress",
          "type": "address"
        },
        {
          "internalType": "string",
          "name": "_name",
          "type": "string"
        },
        {
          "internalType": "string",
          "name": "_uid",
          "type": "string"
        },
        {
          "internalType": "string",
          "name": "_ipfs_hash",
          "type": "string"
        },
        {
          "internalType": "string",
          "name": "_issued_on",
          "type": "string"
        }
      ],
      "name": "issue_document",
      "outputs": [
        {
          "components": [
            {
              "internalType": "uint256",
              "name": "id",
              "type": "uint256"
            },
            {
              "internalType": "uint256",
              "name": "request_id",
              "type": "uint256"
            },
            {
              "internalType": "string",
              "name": "name",
              "type": "string"
            },
            {
              "internalType": "string",
              "name": "uid",
              "type": "string"
            },
            {
              "internalType": "string",
              "name": "ipfs_hash",
              "type": "string"
            },
            {
              "internalType": "string",
              "name": "issued_on",
              "type": "string"
            },
            {
              "internalType": "string",
              "name": "last_updated",
              "type": "string"
            },
            {
              "internalType": "address",
              "name": "admin",
              "type": "address"
            },
            {
              "internalType": "address",
              "name": "user",
              "type": "address"
            },
            {
              "internalType": "enum DeDocs.DEPARTMENT",
              "name": "department",
              "type": "uint8"
            }
          ],
          "internalType": "struct DeDocs.Document",
          "name": "",
          "type": "tuple"
        }
      ],
      "payable": true,
      "stateMutability": "payable",
      "type": "function"
    },
    {
      "constant": false,
      "inputs": [
        {
          "internalType": "uint256",
          "name": "_document_id",
          "type": "uint256"
        },
        {
          "internalType": "string",
          "name": "_new_hash",
          "type": "string"
        },
        {
          "internalType": "string",
          "name": "_last_updated",
          "type": "string"
        },
        {
          "internalType": "string",
          "name": "_message",
          "type": "string"
        }
      ],
      "name": "modify_document",
      "outputs": [
        {
          "components": [
            {
              "internalType": "uint256",
              "name": "id",
              "type": "uint256"
            },
            {
              "internalType": "uint256",
              "name": "request_id",
              "type": "uint256"
            },
            {
              "internalType": "string",
              "name": "name",
              "type": "string"
            },
            {
              "internalType": "string",
              "name": "uid",
              "type": "string"
            },
            {
              "internalType": "string",
              "name": "ipfs_hash",
              "type": "string"
            },
            {
              "internalType": "string",
              "name": "issued_on",
              "type": "string"
            },
            {
              "internalType": "string",
              "name": "last_updated",
              "type": "string"
            },
            {
              "internalType": "address",
              "name": "admin",
              "type": "address"
            },
            {
              "internalType": "address",
              "name": "user",
              "type": "address"
            },
            {
              "internalType": "enum DeDocs.DEPARTMENT",
              "name": "department",
              "type": "uint8"
            }
          ],
          "internalType": "struct DeDocs.Document",
          "name": "",
          "type": "tuple"
        }
      ],
      "payable": true,
      "stateMutability": "payable",
      "type": "function"
    }
  ],
  "bytecode": "0x608060405260008055600060015534801561001957600080fd5b50616b20806200002a6000396000f3fe6080604052600436106101665760003560e01c8063915c74de116100d1578063c5dbb79e1161008a578063d2965f0411610064578063d2965f04146105a5578063e7cc62bd146105e2578063f66c99dc1461060d578063f7a37b521461063d57610166565b8063c5dbb79e1461052e578063ca76115c1461055e578063cf5620221461058957610166565b8063915c74de146103f05780639ecebe2a1461042e578063a6d6e9491461046b578063a87430ba14610496578063bb5bfd66146104d8578063bf5ba0fb1461050357610166565b806339c22db81161012357806339c22db814610296578063429b62e5146102d35780636339884414610312578063726f091e1461034f5780637673ac951461037a578063789469bd146103c057610166565b80630776a4f31461016b5780630c99d1301461019b57806316dd9b59146101b757806318db724f146101e757806326611b5a1461022e57806338925c7d14610259575b600080fd5b6101856004803603610180919081019061550c565b610668565b60405161019291906164f4565b60405180910390f35b6101b560048036036101b091908101906155cf565b6108d6565b005b6101d160048036036101cc9190810190615634565b610fa5565b6040516101de91906164b0565b60405180910390f35b3480156101f357600080fd5b5061020e600480360361020991908101906155cf565b611985565b6040516102259b9a99989796959493929190616531565b60405180910390f35b34801561023a57600080fd5b50610243611d2b565b6040516102509190616516565b60405180910390f35b34801561026557600080fd5b50610280600480360361027b91908101906155cf565b611d31565b60405161028d91906164b0565b60405180910390f35b3480156102a257600080fd5b506102bd60048036036102b89190810190615355565b61231c565b6040516102ca91906163f3565b60405180910390f35b3480156102df57600080fd5b506102fa60048036036102f59190810190615355565b612465565b60405161030993929190616280565b60405180910390f35b34801561031e57600080fd5b506103396004803603610334919081019061537e565b612554565b6040516103469190616516565b60405180910390f35b34801561035b57600080fd5b50610364612582565b604051610371919061633b565b60405180910390f35b34801561038657600080fd5b506103a1600480360361039c91908101906155cf565b612673565b6040516103b79a99989796959493929190616659565b60405180910390f35b6103da60048036036103d591908101906154b8565b612a19565b6040516103e7919061648e565b60405180910390f35b3480156103fc57600080fd5b50610417600480360361041291908101906155f8565b612c37565b6040516104259291906163c3565b60405180910390f35b34801561043a57600080fd5b506104556004803603610450919081019061537e565b612d45565b6040516104629190616516565b60405180910390f35b34801561047757600080fd5b50610480612d73565b60405161048d919061635d565b60405180910390f35b3480156104a257600080fd5b506104bd60048036036104b89190810190615355565b6131ea565b6040516104cf969594939291906162be565b60405180910390f35b3480156104e457600080fd5b506104ed6134a6565b6040516104fa919061637f565b60405180910390f35b34801561050f57600080fd5b50610518613921565b60405161052591906163a1565b60405180910390f35b61054860048036036105439190810190615771565b6139bb565b60405161055591906164b0565b60405180910390f35b34801561056a57600080fd5b50610573614105565b60405161058091906163a1565b60405180910390f35b6105a3600480360361059e919081019061571d565b61419f565b005b3480156105b157600080fd5b506105cc60048036036105c79190810190615355565b614879565b6040516105d991906164f4565b60405180910390f35b3480156105ee57600080fd5b506105f7614bc6565b6040516106049190616516565b60405180910390f35b610627600480360361062291908101906153ba565b614bcc565b60405161063491906164d2565b60405180910390f35b34801561064957600080fd5b50610652614eb0565b60405161065f919061648e565b60405180910390f35b610670615038565b600073ffffffffffffffffffffffffffffffffffffffff16600460003373ffffffffffffffffffffffffffffffffffffffff1673ffffffffffffffffffffffffffffffffffffffff16815260200190815260200160002060000160009054906101000a900473ffffffffffffffffffffffffffffffffffffffff1673ffffffffffffffffffffffffffffffffffffffff1614610741576040517f08c379a00000000000000000000000000000000000000000000000000000000081526004016107389061640e565b60405180910390fd5b610749615038565b33816000019073ffffffffffffffffffffffffffffffffffffffff16908173ffffffffffffffffffffffffffffffffffffffff168152505085816020018190525084816040018190525083816060018190525082816080018190525060008160a001818152505080600460003373ffffffffffffffffffffffffffffffffffffffff1673ffffffffffffffffffffffffffffffffffffffff16815260200190815260200160002060008201518160000160006101000a81548173ffffffffffffffffffffffffffffffffffffffff021916908373ffffffffffffffffffffffffffffffffffffffff1602179055506020820151816001019080519060200190610853929190615084565b506040820151816002019080519060200190610870929190615084565b50606082015181600301908051906020019061088d929190615084565b5060808201518160040190805190602001906108aa929190615084565b5060a0820151816005015590505060016000815480929190600101919050555080915050949350505050565b600073ffffffffffffffffffffffffffffffffffffffff16600560003373ffffffffffffffffffffffffffffffffffffffff1673ffffffffffffffffffffffffffffffffffffffff16815260200190815260200160002060000160009054906101000a900473ffffffffffffffffffffffffffffffffffffffff1673ffffffffffffffffffffffffffffffffffffffff1614156109a8576040517f08c379a000000000000000000000000000000000000000000000000000000000815260040161099f9061642e565b60405180910390fd5b6109b0615104565b600282815481106109bd57fe5b906000526020600020906009020160405180610160016040529081600082015481526020016001820160009054906101000a900473ffffffffffffffffffffffffffffffffffffffff1673ffffffffffffffffffffffffffffffffffffffff1673ffffffffffffffffffffffffffffffffffffffff168152602001600282018054600181600116156101000203166002900480601f016020809104026020016040519081016040528092919081815260200182805460018160011615610100020316600290048015610ad05780601f10610aa557610100808354040283529160200191610ad0565b820191906000526020600020905b815481529060010190602001808311610ab357829003601f168201915b50505050508152602001600382018054600181600116156101000203166002900480601f016020809104026020016040519081016040528092919081815260200182805460018160011615610100020316600290048015610b725780601f10610b4757610100808354040283529160200191610b72565b820191906000526020600020905b815481529060010190602001808311610b5557829003601f168201915b50505050508152602001600482018054600181600116156101000203166002900480601f016020809104026020016040519081016040528092919081815260200182805460018160011615610100020316600290048015610c145780601f10610be957610100808354040283529160200191610c14565b820191906000526020600020905b815481529060010190602001808311610bf757829003601f168201915b50505050508152602001600582018054600181600116156101000203166002900480601f016020809104026020016040519081016040528092919081815260200182805460018160011615610100020316600290048015610cb65780601f10610c8b57610100808354040283529160200191610cb6565b820191906000526020600020905b815481529060010190602001808311610c9957829003601f168201915b505050505081526020016006820160009054906101000a900460ff166003811115610cdd57fe5b6003811115610ce857fe5b81526020016006820160019054906101000a900460ff166002811115610d0a57fe5b6002811115610d1557fe5b81526020016006820160029054906101000a900460ff166002811115610d3757fe5b6002811115610d4257fe5b815260200160078201548152602001600882018054600181600116156101000203166002900480601f016020809104026020016040519081016040528092919081815260200182805460018160011615610100020316600290048015610de95780601f10610dbe57610100808354040283529160200191610de9565b820191906000526020600020905b815481529060010190602001808311610dcc57829003601f168201915b505050505081525050905060018161010001906002811115610e0757fe5b90816002811115610e1457fe5b815250508060028381548110610e2657fe5b90600052602060002090600902016000820151816000015560208201518160010160006101000a81548173ffffffffffffffffffffffffffffffffffffffff021916908373ffffffffffffffffffffffffffffffffffffffff1602179055506040820151816002019080519060200190610ea1929190615084565b506060820151816003019080519060200190610ebe929190615084565b506080820151816004019080519060200190610edb929190615084565b5060a0820151816005019080519060200190610ef8929190615084565b5060c08201518160060160006101000a81548160ff02191690836003811115610f1d57fe5b021790555060e08201518160060160016101000a81548160ff02191690836002811115610f4657fe5b02179055506101008201518160060160026101000a81548160ff02191690836002811115610f7057fe5b02179055506101208201518160070155610140820151816008019080519060200190610f9d929190615084565b509050505050565b610fad615195565b600073ffffffffffffffffffffffffffffffffffffffff16600560003373ffffffffffffffffffffffffffffffffffffffff1673ffffffffffffffffffffffffffffffffffffffff16815260200190815260200160002060000160009054906101000a900473ffffffffffffffffffffffffffffffffffffffff1673ffffffffffffffffffffffffffffffffffffffff16141561107f576040517f08c379a00000000000000000000000000000000000000000000000000000000081526004016110769061642e565b60405180910390fd5b611087615104565b6002888154811061109457fe5b906000526020600020906009020160405180610160016040529081600082015481526020016001820160009054906101000a900473ffffffffffffffffffffffffffffffffffffffff1673ffffffffffffffffffffffffffffffffffffffff1673ffffffffffffffffffffffffffffffffffffffff168152602001600282018054600181600116156101000203166002900480601f0160208091040260200160405190810160405280929190818152602001828054600181600116156101000203166002900480156111a75780601f1061117c576101008083540402835291602001916111a7565b820191906000526020600020905b81548152906001019060200180831161118a57829003601f168201915b50505050508152602001600382018054600181600116156101000203166002900480601f0160208091040260200160405190810160405280929190818152602001828054600181600116156101000203166002900480156112495780601f1061121e57610100808354040283529160200191611249565b820191906000526020600020905b81548152906001019060200180831161122c57829003601f168201915b50505050508152602001600482018054600181600116156101000203166002900480601f0160208091040260200160405190810160405280929190818152602001828054600181600116156101000203166002900480156112eb5780601f106112c0576101008083540402835291602001916112eb565b820191906000526020600020905b8154815290600101906020018083116112ce57829003601f168201915b50505050508152602001600582018054600181600116156101000203166002900480601f01602080910402602001604051908101604052809291908181526020018280546001816001161561010002031660029004801561138d5780601f106113625761010080835404028352916020019161138d565b820191906000526020600020905b81548152906001019060200180831161137057829003601f168201915b505050505081526020016006820160009054906101000a900460ff1660038111156113b457fe5b60038111156113bf57fe5b81526020016006820160019054906101000a900460ff1660028111156113e157fe5b60028111156113ec57fe5b81526020016006820160029054906101000a900460ff16600281111561140e57fe5b600281111561141957fe5b815260200160078201548152602001600882018054600181600116156101000203166002900480601f0160208091040260200160405190810160405280929190818152602001828054600181600116156101000203166002900480156114c05780601f10611495576101008083540402835291602001916114c0565b820191906000526020600020905b8154815290600101906020018083116114a357829003601f168201915b50505050508152505090506114d3615195565b600160038054905001816000018181525050868160400181905250858160600181905250848160800181905250838160a001819052508781610100019073ffffffffffffffffffffffffffffffffffffffff16908173ffffffffffffffffffffffffffffffffffffffff1681525050338160e0019073ffffffffffffffffffffffffffffffffffffffff16908173ffffffffffffffffffffffffffffffffffffffff16815250508160c00151816101200190600381111561159057fe5b9081600381111561159d57fe5b8152505060038190806001815401808255809150509060018203906000526020600020906009020160009091929091909150600082015181600001556020820151816001015560408201518160020190805190602001906115ff929190615084565b50606082015181600301908051906020019061161c929190615084565b506080820151816004019080519060200190611639929190615084565b5060a0820151816005019080519060200190611656929190615084565b5060c0820151816006019080519060200190611673929190615084565b5060e08201518160070160006101000a81548173ffffffffffffffffffffffffffffffffffffffff021916908373ffffffffffffffffffffffffffffffffffffffff1602179055506101008201518160080160006101000a81548173ffffffffffffffffffffffffffffffffffffffff021916908373ffffffffffffffffffffffffffffffffffffffff1602179055506101208201518160080160146101000a81548160ff0219169083600381111561172857fe5b0217905550505050600760008973ffffffffffffffffffffffffffffffffffffffff1673ffffffffffffffffffffffffffffffffffffffff168152602001908152602001600020816000015190806001815401808255809150509060018203906000526020600020016000909192909190915055508060000151826101200181815250508160028a815481106117ba57fe5b90600052602060002090600902016000820151816000015560208201518160010160006101000a81548173ffffffffffffffffffffffffffffffffffffffff021916908373ffffffffffffffffffffffffffffffffffffffff1602179055506040820151816002019080519060200190611835929190615084565b506060820151816003019080519060200190611852929190615084565b50608082015181600401908051906020019061186f929190615084565b5060a082015181600501908051906020019061188c929190615084565b5060c08201518160060160006101000a81548160ff021916908360038111156118b157fe5b021790555060e08201518160060160016101000a81548160ff021916908360028111156118da57fe5b02179055506101008201518160060160026101000a81548160ff0219169083600281111561190457fe5b02179055506101208201518160070155610140820151816008019080519060200190611931929190615084565b509050507f17996aa8290ab524448faa4d34e5699cdbfce21451bd43063fd8106c2d6604f8883383600001518760405161196e9493929190616234565b60405180910390a180925050509695505050505050565b6002818154811061199257fe5b90600052602060002090600902016000915090508060000154908060010160009054906101000a900473ffffffffffffffffffffffffffffffffffffffff1690806002018054600181600116156101000203166002900480601f016020809104026020016040519081016040528092919081815260200182805460018160011615610100020316600290048015611a6a5780601f10611a3f57610100808354040283529160200191611a6a565b820191906000526020600020905b815481529060010190602001808311611a4d57829003601f168201915b505050505090806003018054600181600116156101000203166002900480601f016020809104026020016040519081016040528092919081815260200182805460018160011615610100020316600290048015611b085780601f10611add57610100808354040283529160200191611b08565b820191906000526020600020905b815481529060010190602001808311611aeb57829003601f168201915b505050505090806004018054600181600116156101000203166002900480601f016020809104026020016040519081016040528092919081815260200182805460018160011615610100020316600290048015611ba65780601f10611b7b57610100808354040283529160200191611ba6565b820191906000526020600020905b815481529060010190602001808311611b8957829003601f168201915b505050505090806005018054600181600116156101000203166002900480601f016020809104026020016040519081016040528092919081815260200182805460018160011615610100020316600290048015611c445780601f10611c1957610100808354040283529160200191611c44565b820191906000526020600020905b815481529060010190602001808311611c2757829003601f168201915b5050505050908060060160009054906101000a900460ff16908060060160019054906101000a900460ff16908060060160029054906101000a900460ff1690806007015490806008018054600181600116156101000203166002900480601f016020809104026020016040519081016040528092919081815260200182805460018160011615610100020316600290048015611d215780601f10611cf657610100808354040283529160200191611d21565b820191906000526020600020905b815481529060010190602001808311611d0457829003601f168201915b505050505090508b565b60005481565b611d39615195565b81600380549050811115611d82576040517f08c379a0000000000000000000000000000000000000000000000000000000008152600401611d799061644e565b60405180910390fd5b82600073ffffffffffffffffffffffffffffffffffffffff16600560003373ffffffffffffffffffffffffffffffffffffffff1673ffffffffffffffffffffffffffffffffffffffff16815260200190815260200160002060000160009054906101000a900473ffffffffffffffffffffffffffffffffffffffff1673ffffffffffffffffffffffffffffffffffffffff16141580611e8a57503373ffffffffffffffffffffffffffffffffffffffff1660038281548110611e4057fe5b906000526020600020906009020160080160009054906101000a900473ffffffffffffffffffffffffffffffffffffffff1673ffffffffffffffffffffffffffffffffffffffff16145b611ec9576040517f08c379a0000000000000000000000000000000000000000000000000000000008152600401611ec09061646e565b60405180910390fd5b611ed1615195565b60038581548110611ede57fe5b9060005260206000209060090201604051806101400160405290816000820154815260200160018201548152602001600282018054600181600116156101000203166002900480601f016020809104026020016040519081016040528092919081815260200182805460018160011615610100020316600290048015611fa55780601f10611f7a57610100808354040283529160200191611fa5565b820191906000526020600020905b815481529060010190602001808311611f8857829003601f168201915b50505050508152602001600382018054600181600116156101000203166002900480601f0160208091040260200160405190810160405280929190818152602001828054600181600116156101000203166002900480156120475780601f1061201c57610100808354040283529160200191612047565b820191906000526020600020905b81548152906001019060200180831161202a57829003601f168201915b50505050508152602001600482018054600181600116156101000203166002900480601f0160208091040260200160405190810160405280929190818152602001828054600181600116156101000203166002900480156120e95780601f106120be576101008083540402835291602001916120e9565b820191906000526020600020905b8154815290600101906020018083116120cc57829003601f168201915b50505050508152602001600582018054600181600116156101000203166002900480601f01602080910402602001604051908101604052809291908181526020018280546001816001161561010002031660029004801561218b5780601f106121605761010080835404028352916020019161218b565b820191906000526020600020905b81548152906001019060200180831161216e57829003601f168201915b50505050508152602001600682018054600181600116156101000203166002900480601f01602080910402602001604051908101604052809291908181526020018280546001816001161561010002031660029004801561222d5780601f106122025761010080835404028352916020019161222d565b820191906000526020600020905b81548152906001019060200180831161221057829003601f168201915b505050505081526020016007820160009054906101000a900473ffffffffffffffffffffffffffffffffffffffff1673ffffffffffffffffffffffffffffffffffffffff1673ffffffffffffffffffffffffffffffffffffffff1681526020016008820160009054906101000a900473ffffffffffffffffffffffffffffffffffffffff1673ffffffffffffffffffffffffffffffffffffffff1673ffffffffffffffffffffffffffffffffffffffff1681526020016008820160149054906101000a900460ff16600381111561230057fe5b600381111561230b57fe5b815250509050809350505050919050565b60008073ffffffffffffffffffffffffffffffffffffffff16600460008473ffffffffffffffffffffffffffffffffffffffff1673ffffffffffffffffffffffffffffffffffffffff16815260200190815260200160002060000160009054906101000a900473ffffffffffffffffffffffffffffffffffffffff1673ffffffffffffffffffffffffffffffffffffffff16146123bc5760029050612460565b600073ffffffffffffffffffffffffffffffffffffffff16600560008473ffffffffffffffffffffffffffffffffffffffff1673ffffffffffffffffffffffffffffffffffffffff16815260200190815260200160002060000160009054906101000a900473ffffffffffffffffffffffffffffffffffffffff1673ffffffffffffffffffffffffffffffffffffffff161461245b5760019050612460565b600090505b919050565b60056020528060005260406000206000915090508060000160009054906101000a900473ffffffffffffffffffffffffffffffffffffffff1690806001018054600181600116156101000203166002900480601f0160208091040260200160405190810160405280929190818152602001828054600181600116156101000203166002900480156125375780601f1061250c57610100808354040283529160200191612537565b820191906000526020600020905b81548152906001019060200180831161251a57829003601f168201915b5050505050908060020160009054906101000a900460ff16905083565b6007602052816000526040600020818154811061256d57fe5b90600052602060002001600091509150505481565b61258a61521f565b61259261521f565b6040518060800160405280604051806060016040528060288152602001616a696028913981526020016040518060400160405280600a81526020017f494e434f4d45205441580000000000000000000000000000000000000000000081525081526020016040518060400160405280601581526020017f4d554e49434950414c20434f52504f524154494f4e000000000000000000000081525081526020016040518060400160405280601a81526020017f5354415445205452414e53504f5254442045504152544d454e5400000000000081525081525090508091505090565b6003818154811061268057fe5b9060005260206000209060090201600091509050806000015490806001015490806002018054600181600116156101000203166002900480601f0160208091040260200160405190810160405280929190818152602001828054600181600116156101000203166002900480156127385780601f1061270d57610100808354040283529160200191612738565b820191906000526020600020905b81548152906001019060200180831161271b57829003601f168201915b505050505090806003018054600181600116156101000203166002900480601f0160208091040260200160405190810160405280929190818152602001828054600181600116156101000203166002900480156127d65780601f106127ab576101008083540402835291602001916127d6565b820191906000526020600020905b8154815290600101906020018083116127b957829003601f168201915b505050505090806004018054600181600116156101000203166002900480601f0160208091040260200160405190810160405280929190818152602001828054600181600116156101000203166002900480156128745780601f1061284957610100808354040283529160200191612874565b820191906000526020600020905b81548152906001019060200180831161285757829003601f168201915b505050505090806005018054600181600116156101000203166002900480601f0160208091040260200160405190810160405280929190818152602001828054600181600116156101000203166002900480156129125780601f106128e757610100808354040283529160200191612912565b820191906000526020600020905b8154815290600101906020018083116128f557829003601f168201915b505050505090806006018054600181600116156101000203166002900480601f0160208091040260200160405190810160405280929190818152602001828054600181600116156101000203166002900480156129b05780601f10612985576101008083540402835291602001916129b0565b820191906000526020600020905b81548152906001019060200180831161299357829003601f168201915b5050505050908060070160009054906101000a900473ffffffffffffffffffffffffffffffffffffffff16908060080160009054906101000a900473ffffffffffffffffffffffffffffffffffffffff16908060080160149054906101000a900460ff1690508a565b612a21615246565b600073ffffffffffffffffffffffffffffffffffffffff16600560003373ffffffffffffffffffffffffffffffffffffffff1673ffffffffffffffffffffffffffffffffffffffff16815260200190815260200160002060000160009054906101000a900473ffffffffffffffffffffffffffffffffffffffff1673ffffffffffffffffffffffffffffffffffffffff1614612af2576040517f08c379a0000000000000000000000000000000000000000000000000000000008152600401612ae99061640e565b60405180910390fd5b612afa615246565b33816000019073ffffffffffffffffffffffffffffffffffffffff16908173ffffffffffffffffffffffffffffffffffffffff16815250508381602001819052508281604001906003811115612b4c57fe5b90816003811115612b5957fe5b8152505080600560003373ffffffffffffffffffffffffffffffffffffffff1673ffffffffffffffffffffffffffffffffffffffff16815260200190815260200160002060008201518160000160006101000a81548173ffffffffffffffffffffffffffffffffffffffff021916908373ffffffffffffffffffffffffffffffffffffffff1602179055506020820151816001019080519060200190612c00929190615084565b5060408201518160020160006101000a81548160ff02191690836003811115612c2557fe5b02179055509050508091505092915050565b600060606003805490508410612c885760006040518060400160405280601781526020017f446f63756d656e7420646f6573206e6f7420657869737400000000000000000081525091509150612d3e565b8273ffffffffffffffffffffffffffffffffffffffff1660038581548110612cac57fe5b906000526020600020906009020160080160009054906101000a900473ffffffffffffffffffffffffffffffffffffffff1673ffffffffffffffffffffffffffffffffffffffff161415612d1e576001604051806060016040528060288152602001616ab66028913991509150612d3e565b6000604051806060016040528060258152602001616a9160259139915091505b9250929050565b60066020528160005260406000208181548110612d5e57fe5b90600052602060002001600091509150505481565b60606003805480602002602001604051908101604052809291908181526020016000905b828210156131e15783829060005260206000209060090201604051806101400160405290816000820154815260200160018201548152602001600282018054600181600116156101000203166002900480601f016020809104026020016040519081016040528092919081815260200182805460018160011615610100020316600290048015612e685780601f10612e3d57610100808354040283529160200191612e68565b820191906000526020600020905b815481529060010190602001808311612e4b57829003601f168201915b50505050508152602001600382018054600181600116156101000203166002900480601f016020809104026020016040519081016040528092919081815260200182805460018160011615610100020316600290048015612f0a5780601f10612edf57610100808354040283529160200191612f0a565b820191906000526020600020905b815481529060010190602001808311612eed57829003601f168201915b50505050508152602001600482018054600181600116156101000203166002900480601f016020809104026020016040519081016040528092919081815260200182805460018160011615610100020316600290048015612fac5780601f10612f8157610100808354040283529160200191612fac565b820191906000526020600020905b815481529060010190602001808311612f8f57829003601f168201915b50505050508152602001600582018054600181600116156101000203166002900480601f01602080910402602001604051908101604052809291908181526020018280546001816001161561010002031660029004801561304e5780601f106130235761010080835404028352916020019161304e565b820191906000526020600020905b81548152906001019060200180831161303157829003601f168201915b50505050508152602001600682018054600181600116156101000203166002900480601f0160208091040260200160405190810160405280929190818152602001828054600181600116156101000203166002900480156130f05780601f106130c5576101008083540402835291602001916130f0565b820191906000526020600020905b8154815290600101906020018083116130d357829003601f168201915b505050505081526020016007820160009054906101000a900473ffffffffffffffffffffffffffffffffffffffff1673ffffffffffffffffffffffffffffffffffffffff1673ffffffffffffffffffffffffffffffffffffffff1681526020016008820160009054906101000a900473ffffffffffffffffffffffffffffffffffffffff1673ffffffffffffffffffffffffffffffffffffffff1673ffffffffffffffffffffffffffffffffffffffff1681526020016008820160149054906101000a900460ff1660038111156131c357fe5b60038111156131ce57fe5b8152505081526020019060010190612d97565b50505050905090565b60046020528060005260406000206000915090508060000160009054906101000a900473ffffffffffffffffffffffffffffffffffffffff1690806001018054600181600116156101000203166002900480601f0160208091040260200160405190810160405280929190818152602001828054600181600116156101000203166002900480156132bc5780601f10613291576101008083540402835291602001916132bc565b820191906000526020600020905b81548152906001019060200180831161329f57829003601f168201915b505050505090806002018054600181600116156101000203166002900480601f01602080910402602001604051908101604052809291908181526020018280546001816001161561010002031660029004801561335a5780601f1061332f5761010080835404028352916020019161335a565b820191906000526020600020905b81548152906001019060200180831161333d57829003601f168201915b505050505090806003018054600181600116156101000203166002900480601f0160208091040260200160405190810160405280929190818152602001828054600181600116156101000203166002900480156133f85780601f106133cd576101008083540402835291602001916133f8565b820191906000526020600020905b8154815290600101906020018083116133db57829003601f168201915b505050505090806004018054600181600116156101000203166002900480601f0160208091040260200160405190810160405280929190818152602001828054600181600116156101000203166002900480156134965780601f1061346b57610100808354040283529160200191613496565b820191906000526020600020905b81548152906001019060200180831161347957829003601f168201915b5050505050908060050154905086565b60606002805480602002602001604051908101604052809291908181526020016000905b82821015613918578382906000526020600020906009020160405180610160016040529081600082015481526020016001820160009054906101000a900473ffffffffffffffffffffffffffffffffffffffff1673ffffffffffffffffffffffffffffffffffffffff1673ffffffffffffffffffffffffffffffffffffffff168152602001600282018054600181600116156101000203166002900480601f0160208091040260200160405190810160405280929190818152602001828054600181600116156101000203166002900480156135e75780601f106135bc576101008083540402835291602001916135e7565b820191906000526020600020905b8154815290600101906020018083116135ca57829003601f168201915b50505050508152602001600382018054600181600116156101000203166002900480601f0160208091040260200160405190810160405280929190818152602001828054600181600116156101000203166002900480156136895780601f1061365e57610100808354040283529160200191613689565b820191906000526020600020905b81548152906001019060200180831161366c57829003601f168201915b50505050508152602001600482018054600181600116156101000203166002900480601f01602080910402602001604051908101604052809291908181526020018280546001816001161561010002031660029004801561372b5780601f106137005761010080835404028352916020019161372b565b820191906000526020600020905b81548152906001019060200180831161370e57829003601f168201915b50505050508152602001600582018054600181600116156101000203166002900480601f0160208091040260200160405190810160405280929190818152602001828054600181600116156101000203166002900480156137cd5780601f106137a2576101008083540402835291602001916137cd565b820191906000526020600020905b8154815290600101906020018083116137b057829003601f168201915b505050505081526020016006820160009054906101000a900460ff1660038111156137f457fe5b60038111156137ff57fe5b81526020016006820160019054906101000a900460ff16600281111561382157fe5b600281111561382c57fe5b81526020016006820160029054906101000a900460ff16600281111561384e57fe5b600281111561385957fe5b815260200160078201548152602001600882018054600181600116156101000203166002900480601f0160208091040260200160405190810160405280929190818152602001828054600181600116156101000203166002900480156139005780601f106138d557610100808354040283529160200191613900565b820191906000526020600020905b8154815290600101906020018083116138e357829003601f168201915b505050505081525050815260200190600101906134ca565b50505050905090565b606080600760003373ffffffffffffffffffffffffffffffffffffffff1673ffffffffffffffffffffffffffffffffffffffff1681526020019081526020016000208054806020026020016040519081016040528092919081815260200182805480156139ad57602002820191906000526020600020905b815481526020019060010190808311613999575b505050505090508091505090565b6139c3615195565b84600380549050811115613a0c576040517f08c379a0000000000000000000000000000000000000000000000000000000008152600401613a039061644e565b60405180910390fd5b600073ffffffffffffffffffffffffffffffffffffffff16600560003373ffffffffffffffffffffffffffffffffffffffff1673ffffffffffffffffffffffffffffffffffffffff16815260200190815260200160002060000160009054906101000a900473ffffffffffffffffffffffffffffffffffffffff1673ffffffffffffffffffffffffffffffffffffffff161415613ade576040517f08c379a0000000000000000000000000000000000000000000000000000000008152600401613ad59061642e565b60405180910390fd5b613ae6615195565b60036001880381548110613af657fe5b9060005260206000209060090201604051806101400160405290816000820154815260200160018201548152602001600282018054600181600116156101000203166002900480601f016020809104026020016040519081016040528092919081815260200182805460018160011615610100020316600290048015613bbd5780601f10613b9257610100808354040283529160200191613bbd565b820191906000526020600020905b815481529060010190602001808311613ba057829003601f168201915b50505050508152602001600382018054600181600116156101000203166002900480601f016020809104026020016040519081016040528092919081815260200182805460018160011615610100020316600290048015613c5f5780601f10613c3457610100808354040283529160200191613c5f565b820191906000526020600020905b815481529060010190602001808311613c4257829003601f168201915b50505050508152602001600482018054600181600116156101000203166002900480601f016020809104026020016040519081016040528092919081815260200182805460018160011615610100020316600290048015613d015780601f10613cd657610100808354040283529160200191613d01565b820191906000526020600020905b815481529060010190602001808311613ce457829003601f168201915b50505050508152602001600582018054600181600116156101000203166002900480601f016020809104026020016040519081016040528092919081815260200182805460018160011615610100020316600290048015613da35780601f10613d7857610100808354040283529160200191613da3565b820191906000526020600020905b815481529060010190602001808311613d8657829003601f168201915b50505050508152602001600682018054600181600116156101000203166002900480601f016020809104026020016040519081016040528092919081815260200182805460018160011615610100020316600290048015613e455780601f10613e1a57610100808354040283529160200191613e45565b820191906000526020600020905b815481529060010190602001808311613e2857829003601f168201915b505050505081526020016007820160009054906101000a900473ffffffffffffffffffffffffffffffffffffffff1673ffffffffffffffffffffffffffffffffffffffff1673ffffffffffffffffffffffffffffffffffffffff1681526020016008820160009054906101000a900473ffffffffffffffffffffffffffffffffffffffff1673ffffffffffffffffffffffffffffffffffffffff1673ffffffffffffffffffffffffffffffffffffffff1681526020016008820160149054906101000a900460ff166003811115613f1857fe5b6003811115613f2357fe5b815250509050848160c001819052508581608001819052508060036001890381548110613f4c57fe5b906000526020600020906009020160008201518160000155602082015181600101556040820151816002019080519060200190613f8a929190615084565b506060820151816003019080519060200190613fa7929190615084565b506080820151816004019080519060200190613fc4929190615084565b5060a0820151816005019080519060200190613fe1929190615084565b5060c0820151816006019080519060200190613ffe929190615084565b5060e08201518160070160006101000a81548173ffffffffffffffffffffffffffffffffffffffff021916908373ffffffffffffffffffffffffffffffffffffffff1602179055506101008201518160080160006101000a81548173ffffffffffffffffffffffffffffffffffffffff021916908373ffffffffffffffffffffffffffffffffffffffff1602179055506101208201518160080160146101000a81548160ff021916908360038111156140b357fe5b02179055509050507fc4f15c88bda961a26d5674062e979fe4f589189d2977fa373051e3860cee0daa878286886040516140f094939291906165ff565b60405180910390a18092505050949350505050565b606080600660003373ffffffffffffffffffffffffffffffffffffffff1673ffffffffffffffffffffffffffffffffffffffff16815260200190815260200160002080548060200260200160405190810160405280929190818152602001828054801561419157602002820191906000526020600020905b81548152602001906001019080831161417d575b505050505090508091505090565b600073ffffffffffffffffffffffffffffffffffffffff16600560003373ffffffffffffffffffffffffffffffffffffffff1673ffffffffffffffffffffffffffffffffffffffff16815260200190815260200160002060000160009054906101000a900473ffffffffffffffffffffffffffffffffffffffff1673ffffffffffffffffffffffffffffffffffffffff161415614271576040517f08c379a00000000000000000000000000000000000000000000000000000000081526004016142689061642e565b60405180910390fd5b614279615104565b6002838154811061428657fe5b906000526020600020906009020160405180610160016040529081600082015481526020016001820160009054906101000a900473ffffffffffffffffffffffffffffffffffffffff1673ffffffffffffffffffffffffffffffffffffffff1673ffffffffffffffffffffffffffffffffffffffff168152602001600282018054600181600116156101000203166002900480601f0160208091040260200160405190810160405280929190818152602001828054600181600116156101000203166002900480156143995780601f1061436e57610100808354040283529160200191614399565b820191906000526020600020905b81548152906001019060200180831161437c57829003601f168201915b50505050508152602001600382018054600181600116156101000203166002900480601f01602080910402602001604051908101604052809291908181526020018280546001816001161561010002031660029004801561443b5780601f106144105761010080835404028352916020019161443b565b820191906000526020600020905b81548152906001019060200180831161441e57829003601f168201915b50505050508152602001600482018054600181600116156101000203166002900480601f0160208091040260200160405190810160405280929190818152602001828054600181600116156101000203166002900480156144dd5780601f106144b2576101008083540402835291602001916144dd565b820191906000526020600020905b8154815290600101906020018083116144c057829003601f168201915b50505050508152602001600582018054600181600116156101000203166002900480601f01602080910402602001604051908101604052809291908181526020018280546001816001161561010002031660029004801561457f5780601f106145545761010080835404028352916020019161457f565b820191906000526020600020905b81548152906001019060200180831161456257829003601f168201915b505050505081526020016006820160009054906101000a900460ff1660038111156145a657fe5b60038111156145b157fe5b81526020016006820160019054906101000a900460ff1660028111156145d357fe5b60028111156145de57fe5b81526020016006820160029054906101000a900460ff16600281111561460057fe5b600281111561460b57fe5b815260200160078201548152602001600882018054600181600116156101000203166002900480601f0160208091040260200160405190810160405280929190818152602001828054600181600116156101000203166002900480156146b25780601f10614687576101008083540402835291602001916146b2565b820191906000526020600020905b81548152906001019060200180831161469557829003601f168201915b5050505050815250509050600281610100019060028111156146d057fe5b908160028111156146dd57fe5b815250508181610140018190525080600284815481106146f957fe5b90600052602060002090600902016000820151816000015560208201518160010160006101000a81548173ffffffffffffffffffffffffffffffffffffffff021916908373ffffffffffffffffffffffffffffffffffffffff1602179055506040820151816002019080519060200190614774929190615084565b506060820151816003019080519060200190614791929190615084565b5060808201518160040190805190602001906147ae929190615084565b5060a08201518160050190805190602001906147cb929190615084565b5060c08201518160060160006101000a81548160ff021916908360038111156147f057fe5b021790555060e08201518160060160016101000a81548160ff0219169083600281111561481957fe5b02179055506101008201518160060160026101000a81548160ff0219169083600281111561484357fe5b02179055506101208201518160070155610140820151816008019080519060200190614870929190615084565b50905050505050565b614881615038565b614889615038565b600460008473ffffffffffffffffffffffffffffffffffffffff1673ffffffffffffffffffffffffffffffffffffffff1681526020019081526020016000206040518060c00160405290816000820160009054906101000a900473ffffffffffffffffffffffffffffffffffffffff1673ffffffffffffffffffffffffffffffffffffffff1673ffffffffffffffffffffffffffffffffffffffff168152602001600182018054600181600116156101000203166002900480601f0160208091040260200160405190810160405280929190818152602001828054600181600116156101000203166002900480156149c25780601f10614997576101008083540402835291602001916149c2565b820191906000526020600020905b8154815290600101906020018083116149a557829003601f168201915b50505050508152602001600282018054600181600116156101000203166002900480601f016020809104026020016040519081016040528092919081815260200182805460018160011615610100020316600290048015614a645780601f10614a3957610100808354040283529160200191614a64565b820191906000526020600020905b815481529060010190602001808311614a4757829003601f168201915b50505050508152602001600382018054600181600116156101000203166002900480601f016020809104026020016040519081016040528092919081815260200182805460018160011615610100020316600290048015614b065780601f10614adb57610100808354040283529160200191614b06565b820191906000526020600020905b815481529060010190602001808311614ae957829003601f168201915b50505050508152602001600482018054600181600116156101000203166002900480601f016020809104026020016040519081016040528092919081815260200182805460018160011615610100020316600290048015614ba85780601f10614b7d57610100808354040283529160200191614ba8565b820191906000526020600020905b815481529060010190602001808311614b8b57829003601f168201915b50505050508152602001600582015481525050905080915050919050565b60015481565b614bd4615104565b614bdc615104565b60005481600001818152505033816020019073ffffffffffffffffffffffffffffffffffffffff16908173ffffffffffffffffffffffffffffffffffffffff1681525050878160400181905250868160600181905250858160800181905250838160a00181905250888160c001906003811115614c5557fe5b90816003811115614c6257fe5b81525050848160e001906002811115614c7757fe5b90816002811115614c8457fe5b8152505060008161010001906002811115614c9b57fe5b90816002811115614ca857fe5b815250508281610120018181525050600281908060018154018082558091505090600182039060005260206000209060090201600090919290919091506000820151816000015560208201518160010160006101000a81548173ffffffffffffffffffffffffffffffffffffffff021916908373ffffffffffffffffffffffffffffffffffffffff1602179055506040820151816002019080519060200190614d52929190615084565b506060820151816003019080519060200190614d6f929190615084565b506080820151816004019080519060200190614d8c929190615084565b5060a0820151816005019080519060200190614da9929190615084565b5060c08201518160060160006101000a81548160ff02191690836003811115614dce57fe5b021790555060e08201518160060160016101000a81548160ff02191690836002811115614df757fe5b02179055506101008201518160060160026101000a81548160ff02191690836002811115614e2157fe5b02179055506101208201518160070155610140820151816008019080519060200190614e4e929190615084565b50505050600160008082825401925050819055507fb0d5a35d53d1b590b4e2ab0193806445dd4ad70aab99e4a02454aaf4ae4939b63382600001518b604051614e99939291906161fd565b60405180910390a180915050979650505050505050565b614eb8615246565b614ec0615246565b600560003373ffffffffffffffffffffffffffffffffffffffff1673ffffffffffffffffffffffffffffffffffffffff1681526020019081526020016000206040518060600160405290816000820160009054906101000a900473ffffffffffffffffffffffffffffffffffffffff1673ffffffffffffffffffffffffffffffffffffffff1673ffffffffffffffffffffffffffffffffffffffff168152602001600182018054600181600116156101000203166002900480601f016020809104026020016040519081016040528092919081815260200182805460018160011615610100020316600290048015614ff95780601f10614fce57610100808354040283529160200191614ff9565b820191906000526020600020905b815481529060010190602001808311614fdc57829003601f168201915b505050505081526020016002820160009054906101000a900460ff16600381111561502057fe5b600381111561502b57fe5b8152505090508091505090565b6040518060c00160405280600073ffffffffffffffffffffffffffffffffffffffff16815260200160608152602001606081526020016060815260200160608152602001600081525090565b828054600181600116156101000203166002900490600052602060002090601f016020900481019282601f106150c557805160ff19168380011785556150f3565b828001600101855582156150f3579182015b828111156150f25782518255916020019190600101906150d7565b5b5090506151009190615288565b5090565b60405180610160016040528060008152602001600073ffffffffffffffffffffffffffffffffffffffff168152602001606081526020016060815260200160608152602001606081526020016000600381111561515d57fe5b81526020016000600281111561516f57fe5b81526020016000600281111561518157fe5b815260200160008152602001606081525090565b60405180610140016040528060008152602001600081526020016060815260200160608152602001606081526020016060815260200160608152602001600073ffffffffffffffffffffffffffffffffffffffff168152602001600073ffffffffffffffffffffffffffffffffffffffff1681526020016000600381111561521957fe5b81525090565b60405180608001604052806004905b606081526020019060019003908161522e5790505090565b6040518060600160405280600073ffffffffffffffffffffffffffffffffffffffff168152602001606081526020016000600381111561528257fe5b81525090565b6152aa91905b808211156152a657600081600090555060010161528e565b5090565b90565b6000813590506152bc81616a1a565b92915050565b6000813590506152d181616a31565b92915050565b6000813590506152e681616a41565b92915050565b600082601f8301126152fd57600080fd5b813561531061530b82616745565b616718565b9150808252602083016020830185838301111561532c57600080fd5b615337838284616993565b50505092915050565b60008135905061534f81616a51565b92915050565b60006020828403121561536757600080fd5b6000615375848285016152ad565b91505092915050565b6000806040838503121561539157600080fd5b600061539f858286016152ad565b92505060206153b085828601615340565b9150509250929050565b600080600080600080600060e0888a0312156153d557600080fd5b60006153e38a828b016152c2565b975050602088013567ffffffffffffffff81111561540057600080fd5b61540c8a828b016152ec565b965050604088013567ffffffffffffffff81111561542957600080fd5b6154358a828b016152ec565b955050606088013567ffffffffffffffff81111561545257600080fd5b61545e8a828b016152ec565b945050608061546f8a828b016152d7565b93505060a088013567ffffffffffffffff81111561548c57600080fd5b6154988a828b016152ec565b92505060c06154a98a828b01615340565b91505092959891949750929550565b600080604083850312156154cb57600080fd5b600083013567ffffffffffffffff8111156154e557600080fd5b6154f1858286016152ec565b9250506020615502858286016152c2565b9150509250929050565b6000806000806080858703121561552257600080fd5b600085013567ffffffffffffffff81111561553c57600080fd5b615548878288016152ec565b945050602085013567ffffffffffffffff81111561556557600080fd5b615571878288016152ec565b935050604085013567ffffffffffffffff81111561558e57600080fd5b61559a878288016152ec565b925050606085013567ffffffffffffffff8111156155b757600080fd5b6155c3878288016152ec565b91505092959194509250565b6000602082840312156155e157600080fd5b60006155ef84828501615340565b91505092915050565b6000806040838503121561560b57600080fd5b600061561985828601615340565b925050602061562a858286016152ad565b9150509250929050565b60008060008060008060c0878903121561564d57600080fd5b600061565b89828a01615340565b965050602061566c89828a016152ad565b955050604087013567ffffffffffffffff81111561568957600080fd5b61569589828a016152ec565b945050606087013567ffffffffffffffff8111156156b257600080fd5b6156be89828a016152ec565b935050608087013567ffffffffffffffff8111156156db57600080fd5b6156e789828a016152ec565b92505060a087013567ffffffffffffffff81111561570457600080fd5b61571089828a016152ec565b9150509295509295509295565b6000806040838503121561573057600080fd5b600061573e85828601615340565b925050602083013567ffffffffffffffff81111561575b57600080fd5b615767858286016152ec565b9150509250929050565b6000806000806080858703121561578757600080fd5b600061579587828801615340565b945050602085013567ffffffffffffffff8111156157b257600080fd5b6157be878288016152ec565b935050604085013567ffffffffffffffff8111156157db57600080fd5b6157e7878288016152ec565b925050606085013567ffffffffffffffff81111561580457600080fd5b615810878288016152ec565b91505092959194509250565b60006158288383615b0b565b905092915050565b600061583c8383615e35565b905092915050565b60006158508383616036565b905092915050565b600061586483836161df565b60208301905092915050565b61587981616915565b82525050565b61588881616881565b82525050565b61589781616881565b82525050565b60006158a8826167ab565b6158b28185616821565b9350836020820285016158c485616771565b8060005b8581101561590057848403895281516158e1858261581c565b94506158ec836167ed565b925060208a019950506001810190506158c8565b50829750879550505050505092915050565b600061591d826167b6565b615927818561682c565b9350836020820285016159398561677b565b8060005b8581101561597557848403895281516159568582615830565b9450615961836167fa565b925060208a0199505060018101905061593d565b50829750879550505050505092915050565b6000615992826167c1565b61599c818561683d565b9350836020820285016159ae8561678b565b8060005b858110156159ea57848403895281516159cb8582615844565b94506159d683616807565b925060208a019950506001810190506159b2565b50829750879550505050505092915050565b6000615a07826167cc565b615a11818561684e565b9350615a1c8361679b565b8060005b83811015615a4d578151615a348882615858565b9750615a3f83616814565b925050600181019050615a20565b5085935050505092915050565b615a6381616893565b82525050565b615a7281616927565b82525050565b615a8181616927565b82525050565b615a9081616939565b82525050565b615a9f81616939565b82525050565b615aae8161694b565b82525050565b615abd8161694b565b82525050565b615acc8161695d565b82525050565b6000615add826167e2565b615ae78185616870565b9350615af78185602086016169a2565b615b00816169d5565b840191505092915050565b6000615b16826167d7565b615b20818561685f565b9350615b308185602086016169a2565b615b39816169d5565b840191505092915050565b6000615b4f826167d7565b615b598185616870565b9350615b698185602086016169a2565b615b72816169d5565b840191505092915050565b6000615b8a602283616870565b91507f54686973206164647265737320697320616c726561647920726567697374657260008301527f65640000000000000000000000000000000000000000000000000000000000006020830152604082019050919050565b6000615bf0602383616870565b91507f4f6e6c792061646d696e732063616e20706572666f726d20746869732061637460008301527f696f6e00000000000000000000000000000000000000000000000000000000006020830152604082019050919050565b6000615c56601783616870565b91507f446f63756d656e7420646f6573206e6f742065786973740000000000000000006000830152602082019050919050565b6000615c96602a83616870565b91507f596f7520617265206e6f7420616c6c6f77656420746f20706572666f726d207460008301527f68697320616374696f6e000000000000000000000000000000000000000000006020830152604082019050919050565b6000606083016000830151615d07600086018261587f565b5060208301518482036020860152615d1f8282615b0b565b9150506040830151615d346040860182615a69565b508091505092915050565b600061014083016000830151615d5860008601826161df565b506020830151615d6b60208601826161df565b5060408301518482036040860152615d838282615b0b565b91505060608301518482036060860152615d9d8282615b0b565b91505060808301518482036080860152615db78282615b0b565b91505060a083015184820360a0860152615dd18282615b0b565b91505060c083015184820360c0860152615deb8282615b0b565b91505060e0830151615e0060e086018261587f565b50610100830151615e1561010086018261587f565b50610120830151615e2a610120860182615a69565b508091505092915050565b600061014083016000830151615e4e60008601826161df565b506020830151615e6160208601826161df565b5060408301518482036040860152615e798282615b0b565b91505060608301518482036060860152615e938282615b0b565b91505060808301518482036080860152615ead8282615b0b565b91505060a083015184820360a0860152615ec78282615b0b565b91505060c083015184820360c0860152615ee18282615b0b565b91505060e0830151615ef660e086018261587f565b50610100830151615f0b61010086018261587f565b50610120830151615f20610120860182615a69565b508091505092915050565b600061016083016000830151615f4460008601826161df565b506020830151615f57602086018261587f565b5060408301518482036040860152615f6f8282615b0b565b91505060608301518482036060860152615f898282615b0b565b91505060808301518482036080860152615fa38282615b0b565b91505060a083015184820360a0860152615fbd8282615b0b565b91505060c0830151615fd260c0860182615a69565b5060e0830151615fe560e0860182615a87565b50610100830151615ffa610100860182615aa5565b5061012083015161600f6101208601826161df565b506101408301518482036101408601526160298282615b0b565b9150508091505092915050565b60006101608301600083015161604f60008601826161df565b506020830151616062602086018261587f565b506040830151848203604086015261607a8282615b0b565b915050606083015184820360608601526160948282615b0b565b915050608083015184820360808601526160ae8282615b0b565b91505060a083015184820360a08601526160c88282615b0b565b91505060c08301516160dd60c0860182615a69565b5060e08301516160f060e0860182615a87565b50610100830151616105610100860182615aa5565b5061012083015161611a6101208601826161df565b506101408301518482036101408601526161348282615b0b565b9150508091505092915050565b600060c083016000830151616159600086018261587f565b50602083015184820360208601526161718282615b0b565b9150506040830151848203604086015261618b8282615b0b565b915050606083015184820360608601526161a58282615b0b565b915050608083015184820360808601526161bf8282615b0b565b91505060a08301516161d460a08601826161df565b508091505092915050565b6161e88161690b565b82525050565b6161f78161690b565b82525050565b60006060820190506162126000830186615870565b61621f60208301856161ee565b61622c6040830184615a78565b949350505050565b6000608082019050616249600083018761588e565b6162566020830186615870565b61626360408301856161ee565b81810360608301526162758184615ad2565b905095945050505050565b6000606082019050616295600083018661588e565b81810360208301526162a78185615b44565b90506162b66040830184615a78565b949350505050565b600060c0820190506162d3600083018961588e565b81810360208301526162e58188615b44565b905081810360408301526162f98187615b44565b9050818103606083015261630d8186615b44565b905081810360808301526163218185615b44565b905061633060a08301846161ee565b979650505050505050565b60006020820190508181036000830152616355818461589d565b905092915050565b600060208201905081810360008301526163778184615912565b905092915050565b600060208201905081810360008301526163998184615987565b905092915050565b600060208201905081810360008301526163bb81846159fc565b905092915050565b60006040820190506163d86000830185615a5a565b81810360208301526163ea8184615ad2565b90509392505050565b60006020820190506164086000830184615ac3565b92915050565b6000602082019050818103600083015261642781615b7d565b9050919050565b6000602082019050818103600083015261644781615be3565b9050919050565b6000602082019050818103600083015261646781615c49565b9050919050565b6000602082019050818103600083015261648781615c89565b9050919050565b600060208201905081810360008301526164a88184615cef565b905092915050565b600060208201905081810360008301526164ca8184615d3f565b905092915050565b600060208201905081810360008301526164ec8184615f2b565b905092915050565b6000602082019050818103600083015261650e8184616141565b905092915050565b600060208201905061652b60008301846161ee565b92915050565b600061016082019050616547600083018e6161ee565b616554602083018d61588e565b8181036040830152616566818c615b44565b9050818103606083015261657a818b615b44565b9050818103608083015261658e818a615b44565b905081810360a08301526165a28189615b44565b90506165b160c0830188615a78565b6165be60e0830187615a96565b6165cc610100830186615ab4565b6165da6101208301856161ee565b8181036101408301526165ed8184615b44565b90509c9b505050505050505050505050565b600060808201905061661460008301876161ee565b81810360208301526166268186615d3f565b9050818103604083015261663a8185615ad2565b9050818103606083015261664e8184615ad2565b905095945050505050565b60006101408201905061666f600083018d6161ee565b61667c602083018c6161ee565b818103604083015261668e818b615b44565b905081810360608301526166a2818a615b44565b905081810360808301526166b68189615b44565b905081810360a08301526166ca8188615b44565b905081810360c08301526166de8187615b44565b90506166ed60e083018661588e565b6166fb61010083018561588e565b616709610120830184615a78565b9b9a5050505050505050505050565b6000604051905081810181811067ffffffffffffffff8211171561673b57600080fd5b8060405250919050565b600067ffffffffffffffff82111561675c57600080fd5b601f19601f8301169050602081019050919050565b6000819050919050565b6000819050602082019050919050565b6000819050602082019050919050565b6000819050602082019050919050565b600060049050919050565b600081519050919050565b600081519050919050565b600081519050919050565b600081519050919050565b600081519050919050565b6000602082019050919050565b6000602082019050919050565b6000602082019050919050565b6000602082019050919050565b600081905092915050565b600082825260208201905092915050565b600082825260208201905092915050565b600082825260208201905092915050565b600082825260208201905092915050565b600082825260208201905092915050565b600061688c826168eb565b9050919050565b60008115159050919050565b60008190506168ad826169e6565b919050565b60008190506168c0826169f3565b919050565b60008190506168d382616a00565b919050565b60008190506168e682616a0d565b919050565b600073ffffffffffffffffffffffffffffffffffffffff82169050919050565b6000819050919050565b60006169208261696f565b9050919050565b60006169328261689f565b9050919050565b6000616944826168b2565b9050919050565b6000616956826168c5565b9050919050565b6000616968826168d8565b9050919050565b600061697a82616981565b9050919050565b600061698c826168eb565b9050919050565b82818337600083830152505050565b60005b838110156169c05780820151818401526020810190506169a5565b838111156169cf576000848401525b50505050565b6000601f19601f8301169050919050565b600481106169f057fe5b50565b600381106169fd57fe5b50565b60038110616a0a57fe5b50565b60038110616a1757fe5b50565b616a2381616881565b8114616a2e57600080fd5b50565b60048110616a3e57600080fd5b50565b60038110616a4e57600080fd5b50565b616a5a8161690b565b8114616a6557600080fd5b5056fe554e49515545204944454e54494649434154494f4e20415554484f52495459204f4620494e444941446f63756d656e7420646f6573206e6f742062656c6f6e6720746f20746869732075736572446f63756d656e742076657269666965642073756363657366756c6c792020202020202020202020a365627a7a723158206b73c322163ab5a088747f093ab0a3ab1aa5795c08f19ee43efb9f47f19773336c6578706572696d656e74616cf564736f6c63430005100040",
  "source": "// SPDX-License-Identifier: MIT\r\npragma solidity >=0.4.22 <0.9.0;\r\npragma experimental ABIEncoderV2;\r\n\r\ncontract DeDocs {\r\n\r\n  enum ROLE{\r\n    NOT_REGISTERED,\r\n    ADMIN,\r\n    USER\r\n  }\r\n\r\n  enum DEPARTMENT{\r\n    UNIQUE_IDENTIFICATION_AUTHORITY_OF_INDIA,\r\n    INCOME_TAX,\r\n    MUNICIPAL_CORPORATION,\r\n    STATE_TRANSPORT_DEPARTMENT\r\n  }\r\n\r\n  enum REQUEST_CATEGORY{\r\n    ISSUE,\r\n    UPDATE,\r\n    RECTIFY\r\n  }\r\n\r\n  enum REQUEST_STATUS{\r\n    PENDING,\r\n    SUCCESS,\r\n    REJECTED\r\n  }\r\n\r\n  struct Admin{\r\n    address id;\r\n    string name;\r\n    DEPARTMENT department;\r\n  }\r\n  \r\n  struct User{\r\n    address id;\r\n    string name;\r\n    string dob;\r\n    string password;    \r\n    string joined;\r\n    uint total_requests;\r\n  }\r\n\r\n  struct Request{\r\n    uint id;\r\n    address user_id;\r\n    string subject;\r\n    string description;\r\n    string ipfs_hash;\r\n    string date;\r\n    DEPARTMENT department;\r\n    REQUEST_CATEGORY category;\r\n    REQUEST_STATUS status;\r\n    uint document_id;\r\n    string remarks;\r\n  }\r\n\r\n  struct Document{\r\n    uint id;\r\n    uint request_id;\r\n    string name;\r\n    string uid;\r\n    string ipfs_hash;\r\n    string issued_on;\r\n    string last_updated;\r\n    address admin;\r\n    address user;\r\n    DEPARTMENT department;\r\n  }\r\n\r\n  event Request_made(address user, uint request_id, DEPARTMENT department);\r\n  event Document_issued(address user, address admin, uint document_id, string timestamp);\r\n  event Document_modified(uint document_id, Document document, string message, string timestamp);\r\n\r\n  uint public total_requests = 0;\r\n  uint public total_users = 0;\r\n\r\n  Request[] public all_requests;  //array to store all the requests of the system\r\n  Document[] public all_documents; //array to store all the documents of the system\r\n\r\n  mapping(address => User) public users; // mapping of user address to user data \r\n  mapping(address => Admin) public admins; //mapping of admin address to admin data\r\n  mapping(address => uint256[]) public requests; //mapping of the user addess to all the requests made by that address\r\n  mapping(address => uint256[]) public documents; // mapping of the user address to their documents\r\n  \r\n\r\n  modifier is_admin(){\r\n    require(admins[msg.sender].id != address(0x0),\"Only admins can perform this action\");\r\n    _;\r\n  }\r\n\r\n  modifier is_existent(uint _document_id){\r\n    require(_document_id <= all_documents.length, \"Document does not exist\");\r\n    _;\r\n  }\r\n\r\n  modifier is_allowed(uint _document_id){\r\n    require(admins[msg.sender].id != address(0x0) || all_documents[_document_id].user == msg.sender, \"You are not allowed to perform this action\");\r\n    _;\r\n  }\r\n\r\n  function register_user(string memory _name, string memory _dob, string memory _password, string memory _joined) payable public returns (User memory){\r\n\r\n    require(users[msg.sender].id == address(0x0),\"This address is already registered\");\r\n\r\n    User memory _user;\r\n    _user.id = msg.sender;\r\n    _user.name = _name;\r\n    _user.dob = _dob;\r\n    _user.password = _password;\r\n    _user.joined = _joined;\r\n    _user.total_requests = 0;\r\n\r\n    users[msg.sender] = _user;\r\n\r\n    total_users++;\r\n    \r\n    return _user;\r\n  }\r\n\r\n  function register_admin(string memory _name, DEPARTMENT _department) payable public returns (Admin memory){\r\n\r\n    require(admins[msg.sender].id == address(0x0),\"This address is already registered\");\r\n\r\n    Admin memory _admin;\r\n    _admin.id = msg.sender;\r\n    _admin.name = _name;\r\n    _admin.department = _department;\r\n\r\n    admins[msg.sender] = _admin;\r\n\r\n    return _admin;\r\n  }\r\n\r\n  function get_departments() public pure returns(string[4] memory departments){\r\n    string[4] memory _departments = [\"UNIQUE IDENTIFICATION AUTHORITY OF INDIA\",\"INCOME TAX\",\"MUNICIPAL CORPORATION\",\"STATE TRANSPORTD EPARTMENT\"];\r\n    return _departments;\r\n  }\r\n\r\n  function get_role(address _address) public view returns(ROLE role){\r\n\r\n    if(users[_address].id != address(0x0)) return ROLE.USER;\r\n    if(admins[_address].id != address(0x0)) return ROLE.ADMIN;\r\n\r\n    return ROLE.NOT_REGISTERED;\r\n\r\n  }\r\n\r\n  function get_all_requests() public view returns(Request[] memory){\r\n    return all_requests;\r\n  }\r\n\r\n  function get_all_documents() public view returns(Document[] memory){\r\n    return all_documents;\r\n  }\r\n\r\n  function verify_document(uint _document_id, address _address) public view returns(bool, string memory){\r\n\r\n    // Check if document exists\r\n    if(_document_id >= all_documents.length) return (false, \"Document does not exist\");\r\n\r\n    //Check if document is by correct user\r\n    if(all_documents[_document_id].user == _address) return (true, \"Document verified succesfully           \");\r\n    else return (false,\"Document does not belong to this user\");\r\n\r\n\r\n  }\r\n\r\n  /***********************************  USER FUNCTIONS  *********************************/\r\n\r\n  function get_user_details(address _address) public view returns(User memory user){\r\n    User memory _user = users[_address];\r\n    return _user;\r\n  }\r\n\r\n  function get_user_requests() public view returns(uint256[] memory _requests){\r\n\r\n    uint256[] memory _my_requests = requests[msg.sender];\r\n    return _my_requests;\r\n    \r\n  }\r\n\r\n  function get_user_documents() public view returns(uint256[] memory _documents){\r\n\r\n    uint256[] memory _my_documents = documents[msg.sender];\r\n    return _my_documents;\r\n    \r\n  }\r\n\r\n  function make_request(DEPARTMENT _department,  string memory _subject, string memory _description, string memory _ipfs_hash, REQUEST_CATEGORY _request_category, string memory _date, uint _document_id) public payable returns(Request memory){\r\n\r\n    Request memory request;\r\n\r\n    request.id = total_requests;\r\n    request.user_id = msg.sender;\r\n    request.subject = _subject;\r\n    request.description = _description;\r\n    request.ipfs_hash = _ipfs_hash;\r\n    request.date = _date;\r\n    request.department = _department;\r\n    request.category = _request_category;\r\n    request.status = REQUEST_STATUS.PENDING;\r\n    request.document_id = _document_id;\r\n\r\n    all_requests.push(request);\r\n    total_requests += 1;\r\n\r\n    emit Request_made(msg.sender, request.id, _department);\r\n\r\n    return request;\r\n  }\r\n\r\n\r\n  /********************************ADMIN FUNCTIONS********************************/\r\n\r\n  function get_admin_details() public view returns(Admin memory admin){\r\n    Admin memory _admin = admins[msg.sender];\r\n    return _admin;\r\n  }\r\n\r\n  function get_document (uint _document_id) is_existent(_document_id) is_allowed(_document_id) public view returns (Document memory){\r\n    Document memory _document = all_documents[_document_id];\r\n    return _document;\r\n  }\r\n\r\n  function reject_request(uint _request_id, string memory _remarks) is_admin public payable{\r\n    Request memory _request = all_requests[_request_id];\r\n    _request.status = REQUEST_STATUS.REJECTED;\r\n    _request.remarks = _remarks;\r\n    all_requests[_request_id] = _request;\r\n  }\r\n\r\n  function approve_request(uint _request_id) is_admin public payable{\r\n    Request memory _request = all_requests[_request_id];\r\n    _request.status = REQUEST_STATUS.SUCCESS;\r\n    all_requests[_request_id] = _request;\r\n  }\r\n\r\n  function issue_document(uint _request_id, address _userAddress, string memory _name, string memory _uid, string memory _ipfs_hash, string memory _issued_on) is_admin public payable returns(Document memory){\r\n    \r\n    //check if user is registered\r\n    // require(users[_userAddress].id != address(0x0),\"User is not registered\");\r\n\r\n    //check if no document is already issued for this request\r\n    Request memory _request = all_requests[_request_id];\r\n    // require(_request.document_id == 0,\"Document has already been issued for this request\");\r\n\r\n    //create a new document instance\r\n    Document memory _document;\r\n    _document.id = all_documents.length + 1;\r\n    _document.name = _name;\r\n    _document.uid = _uid;\r\n    _document.ipfs_hash = _ipfs_hash;\r\n    _document.issued_on = _issued_on;\r\n    _document.user = _userAddress;\r\n    _document.admin = msg.sender;\r\n    _document.department = _request.department;\r\n\r\n    //insert the document to the records\r\n    all_documents.push(_document);\r\n    documents[_userAddress].push(_document.id);\r\n\r\n    //update the request\r\n    _request.document_id = _document.id;\r\n    all_requests[_request_id] = _request;\r\n\r\n    emit Document_issued(_userAddress, msg.sender, _document.id,_issued_on);\r\n\r\n    return _document;\r\n  }\r\n\r\n\r\n  function modify_document(uint _document_id, string memory _new_hash, string memory _last_updated, string memory _message) is_existent(_document_id) is_admin public payable returns(Document memory){\r\n    \r\n    //Get the current version of the document\r\n    Document memory _document = all_documents[_document_id - 1];\r\n\r\n    //update the document\r\n    _document.last_updated = _last_updated;\r\n    _document.ipfs_hash = _new_hash;\r\n    all_documents[_document_id - 1] = _document;\r\n\r\n    emit Document_modified(_document_id, _document, _message,_last_updated);\r\n\r\n    return _document;\r\n  }\r\n\r\n}\r\n",
  "sourcePath": "C:\\Users\\prompt\\Desktop\\cloned DeDocs\\DeDocs\\backend\\contracts\\DeDocs.sol",
  "compiler": {
    "name": "solc",
    "version": "0.5.16+commit.9c3226ce.Emscripten.clang"
  },
  "schemaVersion": "3.4.13",
  "updatedAt": "2023-03-26T12:08:15.551Z",
  "devdoc": {
    "methods": {}
  },
  "userdoc": {
    "methods": {
      "get_admin_details()": {
        "notice": "******************************ADMIN FUNCTIONS*******************************"
      },
      "get_user_details(address)": {
        "notice": "*********************************  USER FUNCTIONS  ********************************"
      }
    }
  }
}